:100000000C94650F0C948D0F0C948D0F0C948D0F28
:100010000C948D0F0C948D0F0C948D0F0C948D0FF0
:100020000C948D0F0C948D0F0C94DA190C94491AC2
:100030000C948D0F0C948D0F0C948D0F0C948D0FD0
:100040000C948D0F0C948D0F0C948D0F0C948D0FC0
:100050000C948D0F0C948D0F0C948D0F0C947B1CB5
:100060000C948D0F0C948D0F0C948D0F0C948D0FA0
:100070000C948D0F0C948D0F0C948D0F0C948D0F90
:100080000C948D0F0C948D0F0C948D0F0C948D0F80
:100090000C948D0F0C948D0F0C948D0F0C948D0F70
:1000A0000C948D0F0C948D0F0C948D0F04083E0949
:1000B000093E3F25251A1E2121123F21211E3F25E1
:1000C00025213F0505011E21293A3F04043F213F18
:1000D00021001021211F3F040A313F2020203F0230
:1000E000023F3F02043F1E21211E3F0909061E2137
:1000F000112E3F09093622252519013F01011F2034
:10010000201F0F10201F3F10103F3B04043B03042F
:100110003807312D2321102A2A3C3F2424181C2281
:1001200022141824243F1C2A2A2C047E05014C5238
:10013000523E3F040438243D20004040443D3F08E7
:100140001422213F20003E04043E3E04023C1C22B7
:10015000221C7E22221C1C22227E3E040204242A0F
:100160002A12021F22201E20201E0E10201E3E10CA
:10017000103E360808364E50503E322A26221E299E
:10018000251E223F2000322929261221251A0C0A79
:100190003F08172525191E252518013905031A259D
:1001A000251A0629291E002F00000020000000004B
:1001B00000F00864F4F2F2F46408F00000000000BB
:1001C0000000030C116767110C0300000000000021
:1001D00000F0F8FCFCFEFEFCFCF8F0000000000063
:1001E0000000030F1F7F7F1F0F0300000000006C43
:1001F0003E6E2E1E1C00006C3E6E2E1E1C00E3DBAD
:10020000EA1B1BEADBE3E3DBEA1B1BEADBE30F345D
:10021000D67F7FD6340F0F34D67F7FD6340F056F4D
:10022000F37B73FB6600056FF37B73FB66000404CE
:1002300096F7F7E58400040496F7F7E58400FEAB33
:10024000ABABEF7B3F00FEABABABEF7B3F00003EC9
:10025000555D57555F00003E555D57555F000C32A8
:100260004DBDBD4D320C0C324DBDBD4D320C0000AC
:100270000000003E5B4F5B3E3E6B4F6B3E1C3E7C86
:100280003E1C183C7E3C181C577D571C1C5E7F5E34
:100290001C00183C1800FFE7C3E7FF0018241800F3
:1002A000FFE7DBE7FF30483A060E2629792926408A
:1002B0007F050507407F05253F5A3CE73C5A7F3EB6
:1002C0001C1C08081C1C3E7F14227F22145F5F0048
:1002D0005F5F06097F017F006689956A60606060E4
:1002E0006094A2FFA29408047E040810207E2010CF
:1002F00008082A1C08081C2A08081E101010100CD8
:100300001E0C1E0C30383E3830060E3E0E06000025
:1003100000000000005F00000007000700147F14C9
:100320007F14242A7F2A1223130864623649562038
:10033000500008070300001C2241000041221C005D
:100340002A1C7F1C2A08083E08080080703000081C
:1003500008080808000060600020100804023E51F0
:1003600049453E00427F4000724949494621414982
:100370004D331814127F1027454545393C4A4949E9
:100380003141211109073649494936464949291E53
:100390000000140000004034000000081422411442
:1003A00014141414004122140802015909063E4194
:1003B0005D594E7C1211127C7F494949363E4141BC
:1003C00041227F4141413E7F494949417F09090915
:1003D000013E414151737F0808087F00417F410081
:1003E0002040413F017F081422417F404040407F30
:1003F000021C027F7F0408107F3E4141413E7F097D
:100400000909063E4151215E7F09192946264949BD
:10041000493203017F01033F4040403F1F204020FD
:100420001F3F4038403F63140814630304780403FB
:100430006159494D43007F414141020408102000A9
:100440004141417F0402010204404040404000031A
:1004500007080020545478407F28444438384444E6
:100460004428384444287F385454541800087E09DE
:100470000218A4A49C787F0804047800447D4000FE
:100480002040403D007F1028440000417F40007C18
:10049000047804787C080404783844444438FC1810
:1004A00024241818242418FC7C08040408485454F4
:1004B000542404043F44243C4040207C1C20402021
:1004C0001C3C4030403C44281028444C9090907C88
:1004D0004464544C4400083641000000770000009A
:1004E0004136080002010204023C2623263C1EA1DC
:1004F000A161123A4040207A38545455592155553B
:1005000079412154547841215554784020545579EB
:10051000400C1E527212395555555939545454597C
:1005200039555454580000457C410002457D420035
:1005300001457C40F0292429F0F0282528F07C543E
:100540005545002054547C547C0A097F493249495E
:1005500049323248484832324A4848303A414121CB
:100560007A3A42402078009DA0A07D394444443925
:100570003D4040403D3C24FF2424487E4943662BB7
:100580002FFC2F2BFF0929F620C0887E0903205459
:100590005479410000447D413048484A3238404057
:1005A000227A007A0A0A727D0D19317D2629292FB7
:1005B00028262929292630484D40203808080808CF
:1005C00008080808382F10C8ACBA2F102834FA00D1
:1005D000007B000008142A142222142A1408950013
:1005E000220095AA005500AAAA55AA55AA00000003
:1005F000FF00101010FF00141414FF001010FF0073
:10060000FF1010F010F0141414FC001414F700FF85
:100610000000FF00FF1414F404FC141417101F1042
:10062000101F101F1414141F00101010F0000000F1
:10063000001F101010101F10101010F010000000FC
:10064000FF101010101010101010FF10000000FF0D
:10065000140000FF00FF00001F10170000FC04F44E
:1006600014141710171414F404F40000FF00F71406
:10067000141414141414F700F7141414171410108D
:100680001F101F141414F4141010F010F000001FA9
:10069000101F0000001F14000000FC140000F010E8
:1006A000F01010FF10FF141414FF141010101F008E
:1006B000000000F010FFFFFFFFFFF0F0F0F0F0FF90
:1006C000FFFF0000000000FFFF0F0F0F0F0F384467
:1006D0004438447C2A2A3E147E02020606027E0228
:1006E0007E0263554941633844443C04407E201EE9
:1006F0002006027E020299A5E7A5991C2A492A1C18
:100700004C7201724C304A4D4D303048784830BC04
:10071000625A463D3E494949007E0101017E2A2A2E
:100720002A2A2A44445F444440514A444040444AAF
:1007300051400000FF0103E080FF000008086B6BE0
:10074000083612362436060F090F06000018180066
:1007500000001010003040FF0101001F01011E00C9
:10076000191D1712003C3C3C3C0000000000F0F852
:100770009C8E8783878E9CF8F00000FEFF030303A6
:100780000303070EFCF80000FEFF03030303030747
:100790000EFCF80000FFFF00000000000000FFFF5B
:1007A0000000FEFF8383838383C7EE7C380000F85C
:1007B000FC0E07030303070EFCF800003F7FE0C0B8
:1007C0008080C0E07F3FFFFF01010101010101FFC7
:1007D000FF0000FFFF0C0C0C0C1C3E77E3C1000077
:1007E0007FFFC0C0C0C0C0E0703F1F00001F3F704F
:1007F000E0C0C0C0E0703F1F00007FFFC1C1C1C1A9
:10080000C1E3773E1C00001F3F70E0C0C0C0E07035
:100810003F1F000000000001FFFF01000000D5F0B5
:100820008D14A1C881CFD9F1AF200045786974201B
:100830006D656E7500456E642067616D6500466983
:1008400067687420676F6420005361766520676174
:100850006D65003F3F3FE030E79C730EC7CE39E740
:100860009C73709873CE39E79C73CE398727E79CC9
:1008700073CE39E79C730E47CE39E79C73F877CE79
:1008800039E79CC3AF73CE39E71C8E9C73CE391CFD
:100890003AE79C73CE3BE79C730E7F3872CE39E704
:1008A00070E49C73CE39C78F7FE79C73CE79E79C49
:1008B00073CEE1C839E79C73CE39E79CC3B173CEE0
:1008C00039E71C7E9D73CE39070F39E79C73DE39FB
:1008D000E79CF3CE39E79C77CE39E71C8E9D73CE2B
:1008E00039C7EF9C73CE39073F39E79C73CEE1C817
:1008F00039E79CC39173CE39E7BC73CE39E79D735A
:10090000CE393C39E79C737874CE39E7E0407EE716
:100910009C73CE79E79C73CE3BE79C738EDF39E7FF
:100920009C737876CE39E71CBF73CE39E7BC73CEA3
:1009300039E79D73CE39EF9C73CEE1D139E79C73D3
:10094000FCCE39E79CF3CE39E79C77CE39E770E4EB
:100950009C73CE39EF9C73CE79E79C73CE013F3FF9
:10096000E030E79C730EC7CE39E79C73709873CE66
:1009700039E79C73CE398727E79C73CE39E79C73A0
:100980000E47CE39E79C73F877CE39E79CC3AF7337
:10099000CE39E71C8E9C73CE391C3AE79C73CE3B54
:1009A000E79C730E7F3872CE39E770E49C73CE39C2
:1009B000C78F7FE79C73CE79E79C73CEE1C839E798
:1009C0009C73CE39E79CC3B173CE39E71C7E9D730F
:1009D000CE39070F39E79C73DE39E79CF3CE39E750
:1009E0009C77CE39E71C8E9D73CE39C7EF9C73CEB2
:1009F00039073F39E79C73CEE1C839E79CC391734F
:100A0000CE39E7BC73CE39E79D73CE393C39E79CCC
:100A1000737874CE39E7E0407EE79C73CE79E79C2B
:100A200073CE3BE79C738EDF39E79C737876CE39C3
:100A3000E71CBF73CE39E7BC73CE39E79D73CE395F
:100A4000EF9C73CEE1D139E79C73FCCE39E79CF380
:100A5000CE39E79C77CE39E770E49C73CE39EF9CB2
:100A600073CE79E79C73CE013F3FF0EF9C73CE3994
:100A7000C7EF9C73CE39E79C73CE39E79C73CE39B0
:100A8000E79C73CE39E79C73CE39E79C73CE393C33
:100A900039E79C73F0A473CE39E79D73CE39873F55
:100AA00038D439E79CF3CE39E79C73CE39E79CE321
:100AB00077CE39E79C73CE39E71C9E9C73CE39EF15
:100AC0009C73CE39F80B87CE39E79CE377CE39E7B4
:100AD0009CC3A173CE39E79D73CE39C7EF9C73CE0B
:100AE000391CE1C839E79C733872CE39E7BC73CE44
:100AF0003987637E1C39E79C7338C29F73CE39E710
:100B000070883FE79C73CE39E79C73CE39FCE1D8FF
:100B100039E79C73F873CE39E79CC39F73CE39E7EE
:100B20001C0E9D73CE391CE2D039E79CC3A373CE53
:100B3000398727E79C730E0EC49173CE39070739A6
:100B4000E79C73CE39E79C730E873F3FF0EF9C73B1
:100B5000CE39C7EF9C73CE39E79C73CE39E79C73CF
:100B6000CE39E79C73CE39E79C73CE39E79C73CEC0
:100B7000393C39E79C73F0A473CE39E79D73CE39C5
:100B8000873F38D439E79CF3CE39E79C73CE39E7F9
:100B90009CE377CE39E79C73CE39E71C9E9C73CEDD
:100BA00039EF9C73CE39F80B87CE39E79CE377CECB
:100BB00039E79CC3A173CE39E79D73CE39C7EF9C4B
:100BC00073CE391CE1C839E79C733872CE39E7BC63
:100BD00073CE3987637E1C39E79C7338C29F73CE0E
:100BE00039E770883FE79C73CE39E79C73CE39FCB8
:100BF000E1D839E79C73F873CE39E79CC39F73CE75
:100C000039E71C0E9D73CE391CE2D039E79CC3A393
:100C100073CE398727E79C730E0EC49173CE3907C4
:100C20000739E79C73CE39E79C730E873F3FF0EF9F
:100C30009C73CE39E79C73CE39EF9C73CE39E79C19
:100C400073CE3938CC39E79C73F873CE39E79C738F
:100C5000CE39E79C73CE39E79C77CE39E79C73CECB
:100C600039E79C73CE39E7F0E89C73CE79E79C7343
:100C7000CEE18F1FC7CE39E79CC39173CE39E770A1
:100C8000E49C73CEE1D139E79C733876CE39E7E046
:100C900021E79C73CE3BE79C73DE39E79CC3A373CB
:100CA000CE39074739E79C73CE3BE79C73CE39E7D3
:100CB0009C73DE39E79CC3A373CE398723E79C730B
:100CC000CE79E79C73CEE1C839E79CF3CE39E79C37
:100CD00073CE39E79C73CE39E79C73CE39E79C839A
:100CE000839C73CE393C39E79C73CE39E79C73DE25
:100CF00039E79CF3CE39E79C77CE39E7BC73CE3920
:100D0000E79D73CE391C3AE79C73CE3BE79C730E8C
:100D100047CE39E79C77CE39E7BC73CE39E79C7371
:100D2000CE39E7F871E49C73CEE1D139E79C73CEFC
:100D300039E79CC3A173CE39E71CBF73CE39E7F006
:100D4000E49C73CEC141CE39E79C73FCCE39E79C5D
:100D500073F873CE39E79CC39173CE39E79C73CE99
:100D600039E79C73CE3987433F3FF0EF9C73CE3910
:100D7000E79C73CE39EF9C73CE39E79C73CE39383C
:100D8000CC39E79C73F873CE39E79C73CE39E79C76
:100D900073CE39E79C77CE39E79C73CE39E79C73E5
:100DA000CE39E7F0E89C73CE79E79C73CEE18F1FD4
:100DB000C7CE39E79CC39173CE39E770E49C73CEFC
:100DC000E1D139E79C733876CE39E7E021E79C73AF
:100DD000CE3BE79C73DE39E79CC3A373CE3907474C
:100DE00039E79C73CE3BE79C73CE39E79C73DE39C1
:100DF000E79CC3A373CE398723E79C73CE79E79C26
:100E000073CEE1C839E79CF3CE39E79C73CE39E75E
:100E10009C73CE39E79C73CE39E79C83839C73CE59
:100E2000393C39E79C73CE39E79C73DE39E79CF394
:100E3000CE39E79C77CE39E7BC73CE39E79D73CEC8
:100E4000391C3AE79C73CE3BE79C730E47CE39E7DB
:100E50009C77CE39E7BC73CE39E79C73CE39E7F87F
:100E600071E49C73CEE1D139E79C73CE39E79CC322
:100E7000A173CE39E71CBF73CE39E7F0E49C73CE83
:100E8000C141CE39E79C73FCCE39E79C73F873CE31
:100E900039E79CC39173CE39E79C73CE39E79C73D5
:100EA000CE3987433F3F70EC9C73CE39E79C73CEBD
:100EB000391C3BE79C737872CE39E770C4EF9C73A2
:100EC000CE39877FE79C73CE39E79C73CEE1889F4C
:100ED0009F1FC7CE39E79C73CE39E79C77CE39E7A1
:100EE000F0EC9C73CE39E79C73CE39FC39E79C73E8
:100EF000CE3BE79C738E9F9F9F1F47CE39E79C7325
:100F0000CE39E79C73CE39E79CE377CE39E79C7303
:100F1000CE39E71C8E9C73CE39E79C73CE39E79DA2
:100F200073CE393C3AE79C738EDF39E79C73DE3928
:100F3000E79CC3A373CE398723E79C73CE39E79C24
:100F400073CE391C3BE79C733872CE39E79C73CE65
:100F500039E71C1E9D73CE39EF9C73CE397EE79C1A
:100F600073CEE1C839E79C73DE39E79C73CE39E76D
:100F70009CF3CE39E79C73CE39E71C8E9C73CE3937
:100F8000E79D73CE39EF9C73CE397EE79C73CE39E3
:100F9000E79C73CE397EE79C73CE397EE79C73CE97
:100FA00039F8CB39E79C730E47CE39E79CC3917370
:100FB000CE39E79D73CE3907BF3AE79C730E4FCE0B
:100FC00039E79CE377CE39E71C1C043F3F70EC9C6B
:100FD00073CE39E79C73CE391C3BE79C737872CE95
:100FE00039E770C4EF9C73CE39877FE79C73CE39A5
:100FF000E79C73CEE1889F9F1FC7CE39E79C73CED5
:1010000039E79C77CE39E7F0EC9C73CE39E79C73D7
:10101000CE39FC39E79C73CE3BE79C738E9F9F9F34
:101020001F47CE39E79C73CE39E79C73CE39E79CD6
:10103000E377CE39E79C73CE39E71C8E9C73CE39AB
:10104000E79C73CE39E79D73CE393C3AE79C738EAB
:10105000DF39E79C73DE39E79CC3A373CE3987235E
:10106000E79C73CE39E79C73CE391C3BE79C733801
:1010700072CE39E79C73CE39E71C1E9D73CE39EFD3
:101080009C73CE397EE79C73CEE1C839E79C73DE52
:1010900039E79C73CE39E79CF3CE39E79C73CE39A0
:1010A000E71C8E9C73CE39E79D73CE39EF9C73CECF
:1010B000397EE79C73CE39E79C73CE397EE79C730B
:1010C000CE397EE79C73CE39F8CB39E79C730E4757
:1010D000CE39E79CC39173CE39E79D73CE3907BFF4
:1010E0003AE79C730E4FCE39E79CE377CE39E71C85
:1010F0001C043F3FE028E79C73CE39E79C73CEE1A8
:10110000C839E79C73CE39E79C73CE39E79C73707E
:10111000A073CE39E79D73CE39E79C73CE391CF1AD
:10112000E3CF39E79C738EDF39E79C730E0E74CEE4
:1011300039E7F0E49C73CE397EE79C73CE39F8CB67
:1011400039E79C73DE39E79CF3CE39E71C8E70E4F7
:101150009C73CE79E79C73CE3BE79C73DE39E79CAA
:10116000C39373CE39E7F89D73CE39E79D73CE39BB
:10117000E79C73CE391C3BE79C73CEE1C839E79CF2
:10118000C3217EF18723E79C73CE3BE79C730E87D8
:10119000CE39E79C77CE39E71C3F8E9C73CE393C25
:1011A00039E79C7338E277CE39E79CC32F3FFEF8CE
:1011B000F99D73CE398727E79C73CE3BE79C73DE9E
:1011C00039E79C73F8C39173CE398723E79C73CEBC
:1011D000E1881F8E74CE39E7BC73CE39E79D73CE9C
:1011E00039877F3F3FE028E79C73CE39E79C73CE79
:1011F000E1C839E79C73CE39E79C73CE39E79C731D
:1012000070A073CE39E79D73CE39E79C73CE391C3D
:10121000F1E3CF39E79C738EDF39E79C730E0E74D0
:10122000CE39E7F0E49C73CE397EE79C73CE39F873
:10123000CB39E79C73DE39E79CF3CE39E71C8E701F
:10124000E49C73CE79E79C73CE3BE79C73DE39E771
:101250009CC39373CE39E7F89D73CE39E79D73CE67
:1012600039E79C73CE391C3BE79C73CEE1C839E764
:101270009CC3217EF18723E79C73CE3BE79C730ED2
:1012800087CE39E79C77CE39E71C3F8E9C73CE39E9
:101290003C39E79C7338E277CE39E79CC32F3FFE99
:1012A000F8F99D73CE398727E79C73CE3BE79C7393
:1012B000DE39E79C73F8C39173CE398723E79C73BB
:1012C000CEE1881F8E74CE39E7BC73CE39E79D73AB
:1012D000CE39877F3F3FF0E79C73CE39C7EF9C73D1
:1012E000CE398743E79C730E473874CE39E7708454
:1012F0005F7EE79C73CE39FCF13BE79C73CEF1E354
:10130000C839E79CF3CE39E71C9E9C73CE393C3933
:10131000E79C7338C29F73CE39E71CBF73CE39E7A1
:101320001CBF73CE39E770E49C73CE391C39E79C3F
:10133000730E4FCE39E71C9E9C73CE391C3AE79C46
:1013400073CEF13BE79C73CE39E79C73CEF13BE75C
:101350009C73CEF13BE79C730E4FCE39E71C9E9CED
:1013600073CE39E79C73CE393C39E79C737874CEE1
:1013700039E79C73CE39E79C73CE39E71CBF73CE37
:1013800039E7BC73CE398723E79C73CE79E79C732A
:101390000E4FCE39E79C73CE39E79C73CE39E79C6C
:1013A000C39F73CE39E79C73CE39E7F0E89C73CEC8
:1013B00039FC39E79C730E8FCE39E79CC39F73CEFF
:1013C00039E79C73CE39E7E0201C39E79C7338E29B
:1013D00077CE39E71C8EF89D73CE39E7F8E130E718
:1013E0009C73CE39E79C73CE3BE79C7338E2E7777A
:1013F000CE39E71C8E9C73CE39E79D73CE39E79CBE
:1014000073CE39875F3F3FF0E79C73CE39C7EF9CBF
:1014100073CE398743E79C730E473874CE39E77033
:10142000845F7EE79C73CE39FCF13BE79C73CEF181
:10143000E3C839E79CF3CE39E71C9E9C73CE393C58
:1014400039E79C7338C29F73CE39E71CBF73CE391E
:10145000E71CBF73CE39E770E49C73CE391C39E7C3
:101460009C730E4FCE39E71C9E9C73CE391C3AE715
:101470009C73CEF13BE79C73CE39E79C73CEF13B76
:10148000E79C73CEF13BE79C730E4FCE39E71C9E71
:101490009C73CE39E79C73CE393C39E79C737874E2
:1014A000CE39E79C73CE39E79C73CE39E71CBF7306
:1014B000CE39E7BC73CE398723E79C73CE79E79C9E
:1014C000730E4FCE39E79C73CE39E79C73CE39E764
:1014D0009CC39F73CE39E79C73CE39E7F0E89C73C9
:1014E000CE39FC39E79C730E8FCE39E79CC39F73CE
:1014F000CE39E79C73CE39E7E0201C39E79C73387E
:10150000E277CE39E71C8EF89D73CE39E7F8E130EB
:10151000E79C73CE39E79C73CE3BE79C7338E2E7D8
:1015200077CE39E71C8E9C73CE39E79D73CE39E7B1
:101530009C73CE39875F3F3F70E49C73CE79E79C04
:1015400073CE39E79C73CE3BE79C730E0E72CE3997
:10155000E7E020E79C73CE39FC39E79C73CEF1E3DA
:10156000CF39E79C733884DF70E89C73CE391C3B1D
:10157000E79C73DE39E79C733874CE39E7BC73CED1
:1015800039E79D73CE398743E79C730E473872CE97
:1015900039E7F0E89C73CE397EE79C73CE39FC3A8C
:1015A000E79C730E4FCE39E71C1CE49C73CE39E7E1
:1015B0009C73CE39E79C73CE393C39E79C730E7F20
:1015C000CE39E79C73CE39E79CC3A373CE39E79D30
:1015D00073CE39E79C73CE39EF9C73CE391C39E753
:1015E0009C73DE39E79C73CE39E79C73CE39E79C58
:1015F000C3213F8E9C73CE39C7EF9C73CE391CE359
:10160000D039E79CC39373CE398727E79C730E4785
:10161000FCFCCE39E79CF3CE39E79CC3A173CE39ED
:101620008727E79C730EC7CE39E79CF3CE39E79C3A
:1016300073CE39E79C77CE39E770EC9C73CE39C70F
:10164000EF9C73CE39875F3F3F70E49C73CE79E7A0
:101650009C73CE39E79C73CE3BE79C730E0E72CE23
:1016600039E7E020E79C73CE39FC39E79C73CEF173
:10167000E3CF39E79C733884DF70E89C73CE391C64
:101680003BE79C73DE39E79C733874CE39E7BC7353
:10169000CE39E79D73CE398743E79C730E47387286
:1016A000CE39E7F0E89C73CE397EE79C73CE39FCE7
:1016B0003AE79C730E4FCE39E71C1CE49C73CE397D
:1016C000E79C73CE39E79C73CE393C39E79C730EA7
:1016D0007FCE39E79C73CE39E79CC3A373CE39E73D
:1016E0009D73CE39E79C73CE39EF9C73CE391C398C
:1016F000E79C73DE39E79C73CE39E79C73CE39E7FC
:101700009CC3213F8E9C73CE39C7EF9C73CE391C8E
:10171000E3D039E79CC39373CE398727E79C730ED8
:1017200047FCFCCE39E79CF3CE39E79CC3A173CECE
:10173000398727E79C730EC7CE39E79CF3CE39E78C
:101740009C73CE39E79C77CE39E770EC9C73CE3929
:10175000C7EF9C73CE39875F3F3F70EC9C73CE79A7
:10176000E79C73CE3BE79C730E47CE39E79C77CE60
:1017700039E7BC73CE39E770E49C73CE79E79C738C
:10178000CE3BE79C73DE39E79CF3CE39E79C73CE02
:1017900039E79C77CE39E7BC73CE39E7F89D73CE35
:1017A00039E7F89D73CE39E79D73CE39C7EF9C7347
:1017B000CE39C7CF8F3FE79C73CEE10847CE39E7DC
:1017C0001C0E71E49C73CEE108FFCE39E79C7338A0
:1017D00072CE39E7BC73CE39E79D73CE39C7EF9C23
:1017E00073CE39EF9C73CEE10847CE39E79CC39F97
:1017F00073CE39E71C1CE49C73CE39E79C73CEE1B1
:10180000D839E79C73DE39E79C73CE39E79CF3CE79
:1018100039E71C1E9D73CE39E79C73CE39EF9C735C
:10182000CE391C39E79C73CE39E79C73CE39E79CDF
:1018300073DE39E79C73CE39E79CF3CE39E79CC35E
:10184000B173CE39E79C73CE39E79C73CE39E7F09C
:101850008B23E79C73CE3BE79C73DE39E79CF3CE8A
:1018600039E71C8E9C73CE398723E79C73CE79E7CA
:101870009C73CE3BE79C73DE39E79CF3CE39E79C43
:1018800077CE39E770E89C73CE39C7EF9C73CE39B9
:1018900038CE39E79C73CE39E79C730E87CE39E793
:1018A0009C73CE39E71C1C053F3F70EC9C73CE79CE
:1018B000E79C73CE3BE79C730E47CE39E79C77CE0F
:1018C00039E7BC73CE39E770E49C73CE79E79C733B
:1018D000CE3BE79C73DE39E79CF3CE39E79C73CEB1
:1018E00039E79C77CE39E7BC73CE39E7F89D73CEE4
:1018F00039E7F89D73CE39E79D73CE39C7EF9C73F6
:10190000CE39C7CF8F3FE79C73CEE10847CE39E78A
:101910001C0E71E49C73CEE108FFCE39E79C73384E
:1019200072CE39E7BC73CE39E79D73CE39C7EF9CD1
:1019300073CE39EF9C73CEE10847CE39E79CC39F45
:1019400073CE39E71C1CE49C73CE39E79C73CEE15F
:10195000D839E79C73DE39E79C73CE39E79CF3CE28
:1019600039E71C1E9D73CE39E79C73CE39EF9C730B
:10197000CE391C39E79C73CE39E79C73CE39E79C8E
:1019800073DE39E79C73CE39E79CF3CE39E79CC30D
:10199000B173CE39E79C73CE39E79C73CE39E7F04B
:1019A0008B23E79C73CE3BE79C73DE39E79CF3CE39
:1019B00039E71C8E9C73CE398723E79C73CE79E779
:1019C0009C73CE3BE79C73DE39E79CF3CE39E79CF2
:1019D00077CE39E770E89C73CE39C7EF9C73CE3968
:1019E00038CE39E79C73CE39E79C730E87CE39E742
:1019F0009C73CE39E71C1C053F3FE057E79C73CE34
:101A000039E79C73CE397EE79C73CE39F8CD39E740
:101A10009C73CE39E79C73CE39E79C73DE39E79C23
:101A200073CE39E79C73CE39E79C73CE39E79CC3FC
:101A30009373CE39074F39E79C73CE39E79C73789F
:101A400072CE39E71CFC8423E79C73CEE197DF3923
:101A5000E79C73CE39E79C730E87CE39E71C9E9CBA
:101A600073CE391C39E79C73CEE18FDF39E79C7365
:101A70007872CE39E770E49C73CE39EF9C73CEE177
:101A8000C939E79C733874CE39E71C8E9C73CE3904
:101A90008743E79C73CEE1CF39E79C73CE39E79C4F
:101AA000733876CE39E79CC39173CE39E79C73CEF9
:101AB0003987231C39E79C738E1F0E72CE39E7F0ED
:101AC000E49C73CEE10887CE39E71C0E9D73CE39B6
:101AD000E7F08B3FE79C73CEE1C839E79C73701445
:101AE0008E9C73CE39EF9C73CE39FC033F3FE05799
:101AF000E79C73CE39E79C73CE397EE79C73CE3971
:101B0000F8CD39E79C73CE39E79C73CE39E79C73E7
:101B1000DE39E79C73CE39E79C73CE39E79C73CEF0
:101B200039E79CC39373CE39074F39E79C73CE399D
:101B3000E79C737872CE39E71CFC8423E79C73CE54
:101B4000E197DF39E79C73CE39E79C730E87CE3976
:101B5000E71C9E9C73CE391C39E79C73CEE18FDF66
:101B600039E79C737872CE39E770E49C73CE39EF15
:101B70009C73CEE1C939E79C733874CE39E71C8E6B
:101B80009C73CE398743E79C73CEE1CF39E79C73D2
:101B9000CE39E79C733876CE39E79CC39173CE3942
:101BA000E79C73CE3987231C39E79C738E1F0E7216
:101BB000CE39E7F0E49C73CEE10887CE39E71C0EFE
:101BC0009D73CE39E7F08B3FE79C73CEE1C839E7D0
:101BD0009C7370148E9C73CE39EF9C73CE39FC03CA
:101BE0003F3FE028E79C73CE3BE79C730E7FCE39E6
:101BF000E79C7370A873CE39E79D73CE391C39E723
:101C00009C73CEE10F0E75CE39E79C73CE39E7BCDD
:101C100073CE39E79C73CE39E79D73CE39E79C7359
:101C2000CE39EF9C73CE79E79C73CE39E79C73CEA7
:101C3000C141CE39E79CC39173CE39E79D73CE394C
:101C40001C39E79C73CE3BE79C730E87CE39E79C2B
:101C5000E377CE39E79C77CE39E79C73CE39E770CE
:101C6000C4EF9C73CE39E79C73CE393C3BE79C7341
:101C7000CE39E79C733874CE39E79C831F9D73CEB1
:101C800039E7F0EB9C73CE39E79C73CE398763E775
:101C90009C73CEC14FCE39E79C83879C73CE393C71
:101CA00039E79C73CE39E79C7370A873CE39E79CF3
:101CB00073CE39E7BC73CE39E7F0E79C73CE393881
:101CC000083F3FE028E79C73CE3BE79C730E7FCE36
:101CD00039E79C7370A873CE39E79D73CE391C39F0
:101CE000E79C73CEE10F0E75CE39E79C73CE39E7D2
:101CF000BC73CE39E79C73CE39E79D73CE39E79C30
:101D000073CE39EF9C73CE79E79C73CE39E79C7321
:101D1000CEC141CE39E79CC39173CE39E79D73CED6
:101D2000391C39E79C73CE3BE79C730E87CE39E7AD
:101D30009CE377CE39E79C77CE39E79C73CE39E7C1
:101D400070C4EF9C73CE39E79C73CE393C3BE79C63
:101D500073CE39E79C733874CE39E79C831F9D732B
:101D6000CE39E7F0EB9C73CE39E79C73CE398763AD
:101D7000E79C73CEC14FCE39E79C83879C73CE39E5
:101D80003C39E79C73CE39E79C7370A873CE39E772
:101D90009C73CE39E7BC73CE39E7F0E79C73CE393C
:101DA00038085370656369616C78004865616C0040
:101DB000446566656E640041747461636B00454EF2
:101DC0002000485020003A20004D6F72652E2E2EC4
:101DD000003A200050726963653A200018183C3CB4
:101DE0007E7EFFFF18183C3C7E7EFFFF030F3FFF07
:101DF000FF3F0F03030F3FFFFF3F0F03FFFF7E7EF9
:101E00003C3C1818422062757900C0F0FCFFFFFCD2
:101E1000F0C0C0F0FCFFFFFCF0C06D656E75004CBB
:101E20006576656C200046616974682000466169CA
:101E300074682078332000FFFF7E7E3C3C18184CED
:101E40006F61642067616D65004E65772067616D25
:101E50006500080B000202020000090400000102F4
:101E600002000005240010010524010101042402E0
:101E7000060524060001070581031000400904013E
:101E800000020A0000000705020240000007058367
:101E9000024000000403090412010002EF020140A5
:101EA0004123368000010102030141726475696EAD
:101EB0006F204C4C430041726475696E6F204C6515
:101EC0006F6E6172646F0000F81C11241FBECFEFAB
:101ED000DAE0DEBFCDBF13E0A0E0B1E0E6EBFDE568
:101EE00002C005900D92A030B107D9F728E0A0E01C
:101EF000B3E001C01D92A135B207E1F71FE0C5E6CE
:101F0000DFE004C02197FE010E94BF2EC436D10736
:101F1000C9F70E946C1D0C94D92E0C940000EAE6BF
:101F2000F3E0A0E0B8E000800EBC8111012C119715
:101F3000A0FDFDCF0192B9F70DB40895FC01809189
:101F40006903882311F13FB7F89482E08093E90098
:101F50002091F200822F90E01816190614F481E007
:101F600090E0882339F0289844E640936803409134
:101F7000F1004083222339F02091F200211103C0A7
:101F80002BE62093E8003FBF08958FEF9FEF089561
:101F90002FB7F89483E08093E9009091E800892FAF
:101FA000807295FF04C09091F20080E4891B2FBFDE
:101FB00008958091600381110DC082E080935C03DD
:101FC00084E080935D0310925F0310925E0381E0D2
:101FD000809360038CE593E00895CF93DF931F9285
:101FE000CDB7DEB76983DC01ED91FC910280F3810E
:101FF000E02D41E050E0BE016F5F7F4F09950F90EB
:10200000DF91CF91089583E08093E9008091F20001
:10201000882319F08AE38093E80008950E94C80F8E
:1020200090E00895CF93DF931F92CDB7DEB7FC0108
:102030008485958597FD08C02FEF3FEF358724876E
:102040000F90DF91CF910895CE0101960E949E0FCF
:10205000019719F4898190E0F3CF8FEF9FEFF0CFD4
:102060000F931F93CF93DF931F92CDB7DEB78C01F1
:10207000FC018485958597FF0BC0CE0101960E94D7
:102080009E0F019771F4898190E0F801958784870C
:10209000F801848595850F90DF91CF911F910F9165
:1020A00008958FEF9FEFF1CFFC018485958597FD13
:1020B0000BC09FB7F89482E08093E9008091F20012
:1020C0009FBF90E0019608959FB7F89482E08093B7
:1020D000E9008091F2009FBF90E00895409156037F
:1020E00050915703209154033091550342175307E1
:1020F000B4F49091E8009570E1F39091E80092FDBE
:1021000019C08093F1008091560390915703019676
:102110008F739927892B19F48EEF8093E8008091B3
:10212000560390915703019690935703809356035B
:1021300081E0089580E00895DF92EF92FF920F937F
:102140001F93CF93DF93D82E8A01EB017B01E40E1E
:10215000F51ECE15DF0559F0D7FE12C0FE018491A1
:102160000E946E1021968111F4CF0FEF1FEFC8016E
:10217000DF91CF911F910F91FF90EF90DF90089525
:102180008881EECF0F931F93CF93DF931F92CDB72C
:10219000DEB782E0898342E450E062E57EE180E8D8
:1021A0000E949C100E94D90FDC0112960D911C9187
:1021B0000115110589F0D801ED91FC910280F381A0
:1021C000E02DBE016F5F7F4FC801099597FD04C0E8
:1021D000F80100851185ECCF89810F90DF91CF91B7
:1021E0001F910F910895615030F02091F100FC0192
:1021F00020830196F8CF289884E680936803089599
:10220000AF92BF92CF92DF92EF92FF920F931F9304
:10221000CF93DF936C017B018B01040F151FEB0142
:102220005E01AE18BF08C017D10759F06991D601F9
:10223000ED91FC910190F081E02DC6010995892B6B
:1022400079F7C501DF91CF911F910F91FF90EF902A
:10225000DF90CF90BF90AF9008953FB7F8948091F2
:10226000030390910403A0910503B091060326B5E2
:10227000A89B05C02F3F19F00196A11DB11D3FBFBE
:10228000BA2FA92F982F8827BC01CD01620F711D8D
:10229000811D911D42E0660F771F881F991F4A9587
:1022A000D1F708958F929F92AF92BF92CF92DF9213
:1022B000EF92FF926B017C010E942D114B015C019A
:1022C000C114D104E104F104B9F00E942D11681980
:1022D00079098A099B09683E73408105910580F35D
:1022E00021E0C21AD108E108F10888EE880E83E0E7
:1022F000981EA11CB11CE4CFFF90EF90DF90CF900F
:10230000BF90AF909F908F9008958F929F92AF92C1
:10231000BF92CF92DF92EF92FF920F931F93CF93D2
:10232000DF936C017B018A0180915101882309F4BC
:102330005CC080916903882309F457C080915B03D6
:1023400080FF05C08091E00082608093E000E8019A
:10235000B12C8AEFA82E93E0892E2AE3922E2097A3
:1023600011F4BB20D9F10E94C80F81110AC0AA94B0
:10237000AA20D9F161E070E080E090E00E94521163
:10238000EECF8C171D0611F00CF08C2F9FB7F89430
:102390008092E9002091E80025FD02C09FBFDFCFB9
:1023A000282F30E0C21BD30BF701815020F0419160
:1023B0004093F100FACFE20EF31EBB2021F0909281
:1023C000E800B12CEBCF8091E80085FDE7CF90923B
:1023D000E800BB24B394209709F3F3CF5D9884E61B
:1023E00080935A03101611063CF081E090E0F6014C
:1023F0009383828310E000E0C801DF91CF911F91A9
:102400000F91FF90EF90DF90CF90BF90AF909F9093
:102410008F9008954F925F926F927F928F929F92CA
:10242000AF92BF92CF92DF92EF92FF920F931F93E2
:10243000CF93DF934C015901FC2DC02FD0E0CE018A
:10244000880D991D181619060CF067C09B012E0DFA
:10245000311D121613060CF060C0603471050CF0CB
:102460005CC04115510509F458C0262F2770F22E83
:10247000DB0177FD179633E0B595A7953A95E1F71F
:102480003A2F77FF04C0FF2011F03FEF3A0F662785
:1024900077276819790997FC02C070E060E08038FE
:1024A00091050CF44BC090E89819961BA32F032EAE
:1024B000000CBB0B1A2F10953F3F0CF010E021E0F1
:1024C0008E2D877009F420E0E694E694E694E20EFF
:1024D000AE0DB11D19971CF028E0E22EE31AE11AA7
:1024E000310F20E83203D0011124A80DB91DA60F29
:1024F000B71F019F600D711D1124460F571F0F2D2F
:102500000F2C000C110BF33009F41CC1C8F4F1308E
:1025100009F4D0C0F23009F47CC0DF91CF911F9153
:102520000F91FF90EF90DF90CF90BF90AF909F9072
:102530008F907F906F905F904F900895902FB5CFC0
:10254000FA3FB1F1232F2E0DFB3F39F7321729F354
:10255000BD0166597C4FD12CC12CC91608F0A4C00E
:10256000FA01EC0DFD1DE491F0E04F01002E02C0D8
:10257000880C991C0A94E2F737FD06C0FB018081A4
:10258000E82CE0948E218083FF2061F0373054F4F2
:102590005B01F0E8AF0EB11CE92CE094F5018081FD
:1025A0008E218083FFEFCF1ADF0A6F5F7F4FD5CF79
:1025B000232F2E0D321709F4B0CFBD0166597C4F81
:1025C000D12CC12CC91608F069C0FA01EC0DFD1D13
:1025D000E491F0E04F01002E02C0880C991C0A948F
:1025E000E2F737FD04C0FB01808188298083FF204A
:1025F00051F0373044F45B01F0E8AF0EB11CF50147
:10260000808189298083FFEFCF1ADF0A6F5F7F4FB8
:10261000D9CF6FEF70E00F2C02C0660F771F0A94BE
:10262000E2F760957095772E232F2E0D321709F45F
:1026300074CFFD01E659FC4F6F01B12CA12CA916F6
:1026400038F5FA01EA0DFB1DE491F0E02F01002EB0
:1026500002C0440C551C0A94E2F737FD05C0F60190
:102660008081862384298083FF2059F037304CF401
:102670004601F0E88F0E911CF401808187218529A5
:102680008083FFEFAF1ABF0A8FEFC81AD80AD7CFDF
:102690003F5F4C0F5D1FA058BF4FC8CF3F5F4C0F2F
:1026A0005D1FA058BF4F86CF3F5F4C0F5D1FA058E6
:1026B000BF4F4CCF6A0D7B1D232F2E0D321709F40F
:1026C0002CCFFD01E659FC4F6F01B12CA12CA916AE
:1026D00088F5FB01EA0DFB1D8490912C002E02C0B1
:1026E000880C991C0A94E2F780949094FA01EA0D00
:1026F000FB1D6490712C002E02C0660C771C0A949E
:10270000E2F737FD05C0F6018081882186298083A4
:10271000FF2049F037303CF4F601E058FF4F80814C
:10272000892187298083FFEFAF1ABF0A8FEFC81A6C
:10273000D80ACDCF3F5F4C0F5D1F6C0F7D1FA05897
:10274000BF4FBCCFC92ED12CFA01E60FF71FA659F7
:10275000BC4F00E810E00C191D09CC19DD09BE01C1
:10276000660F771F41E050E06A010F2C01C0CC0CCE
:102770000A94EAF7592F2E2D792ECF93DF93ED018E
:10278000EF96EF9622968590A590FF2059F08C9CAD
:102790004001AC9C500137302CF4E880B094EB2021
:1027A000E928E99233233AF0EC90A094EA20E82853
:1027B000ED920C94DC1311965A9529F72A9551F055
:1027C000572D33951124E60FF11DA00FB11DC00F39
:1027D000D11DD9CFDF91CF9111249FCE2D9A08958D
:1027E000BC0190E080E00C9452118FB18095807F05
:1027F000669B88601C9B846008952F923F924F9245
:102800005F926F927F928F929F92AF92BF92CF9280
:10281000DF92EF92FF920F931F93CF93DF9300D03D
:102820001F92CDB7DEB76D30D1F02091050129831D
:10283000C0905003D0905103822F90E06A3039F558
:1028400010924F0310924E0343E0880F991F4A9550
:10285000E1F7C80ED91ED0925103C092500381E017
:1028600090E00F900F900F90DF91CF911F910F91FB
:10287000FF90EF90DF90CF90BF90AF909F908F90A0
:102880007F906F905F904F903F902F900895209190
:102890004E0330914F033B832A8335E0639FF00161
:1028A0001124E259FD4F0A811B8140E030E1832E63
:1028B000912C453029F09F012F5F3F4F9490F901F3
:1028C000560128E0722E592D5170552EB801662EF2
:1028D000262F201B3981231760F5F12CE12C59811B
:1028E000E51620F560387105D0F495012E0D3F1DD9
:1028F00020343105A0F451E021FD54E020FD550FB6
:1029000022FD5295287F829ED0011124A60D452ECE
:10291000A659BC4F2C91552031F0252B2C93AFEFAD
:10292000EA1AFA0ADCCF40942421F8CF6F5F7F4F78
:10293000CECF96947A94A80EB91E7110C4CF4F5F73
:10294000080F191F463009F0B3CF2A813B81598106
:10295000549F200D311D112430934F0320934E03BB
:102960007ECF90910103982329F49091000398233E
:1029700081E009F480E008958091000380930103D1
:102980000E94F51380930003089580E00C948F0F4C
:102990001F93CF93DF93DC0130E020E050E040E074
:1029A00011E0C1E0D0E02617370791F114968C9121
:1029B0001497811115C014961C93149712968D913B
:1029C0009C911397ED91FC911197E80FF91FE491F9
:1029D0001596EC931597019613969C938E931297E8
:1029E00014969C91149715968C911597892349F00C
:1029F000FE01022E02C0EE0FFF1F0A94E2F74E2BDB
:102A00005F2B990F14969C9314972F5F3F4FCBCF5A
:102A1000CA01DF91CF911F9108953F924F925F922B
:102A20006F927F928F929F92AF92BF92CF92DF92DE
:102A3000EF92FF920F931F93CF93DF9300D000D0BC
:102A400000D0CDB7DEB7562E9A8389831C821B82B5
:102A50001D821E8268E070E0CE0101960E94C814BB
:102A60006C0168E070E0CE0101960E94C8148C01F0
:102A700061E070E0CE0101960E94C81470ECC716A8
:102A80007FEFD7060CF474C098012F5F3F4F1216EA
:102A900013060CF06DC05901F3E0B594A794FA95B4
:102AA000E1F727703327232B19F09FEFA91AB90AF2
:102AB000082F3324339410E0F12CE12C912C812C3D
:102AC000442443948A149B040CF052C066246394FB
:102AD000712C61E070E0CE0101960E94C814892B30
:102AE00021F472E0670E711CF4CFB301CE010196A0
:102AF0000E94C814019630E020E028173907B0F58D
:102B000001111329632D660F71F5A4014F5F5F4F0B
:102B10004930510598F470E4E716F1047CF4F401AF
:102B2000F695FE2FEE27F795E795EE0DFF1DE6557E
:102B3000FC4F7081552099F0172B10837FEFE71A17
:102B4000F70A33243394CE14DF042CF44A013324DF
:102B50003394F12CE12C2F5F3F4F162FCECF1095E1
:102B600071237083EBCF362E612FF5CF0425AACFCA
:102B700026960FB6F894DEBF0FBECDBFDF91CF9182
:102B80001F910F91FF90EF90DF90CF90BF90AF908B
:102B90009F908F907F906F905F904F903F9008959F
:102BA0003F924F925F926F927F928F929F92AF92DD
:102BB000BF92CF92DF92EF92FF920F931F93CF932A
:102BC000DF9330E0F901E80FF91F1E161F060CF025
:102BD000C1C0803891050CF0BDC0FB01E00FF11DB4
:102BE0001E161F060CF0B6C0603471050CF0B2C0A2
:102BF000DB0177FF04C0AA27BB27A61BB70BA77072
:102C0000BB27FB0177FD3796C3E0F595E795CA959D
:102C1000E1F777FF07C0319768E070E0EB01CA1B6E
:102C2000DB0BDE01402E469446944694512C0770EF
:102C300019F0DFEF4D1A5D0ABF01EF01D695DC2FC9
:102C4000CC27D795C795C80FD91FC659DC4F8A0125
:102C5000460E571E48E050E04A018A1A9B0A461663
:102C6000570609F477C06830710509F473C06F3FE7
:102C7000EFEF7E070CF44BC06C0150E040E03E01EA
:102C8000E0E86E0E711CD7FC35C06F3F760709F483
:102C90005DC05E01A40EB51EF501F080F801E40FE1
:102CA000F51F33243394E31039C0E4910A2E01C098
:102CB000EE0F0A94EAF7FE2AF501F0821097D1F0A0
:102CC00067307105B9F05301A40EB51EF501F0800F
:102CD000FA01E00FF11F33243394E3102BC0E49189
:102CE000F0E0082C02C0F595E7950A94E2F7FE2A79
:102CF000F501F0824F5F5F4FFFEFCF1ADF0A4217F7
:102D000053072CF4F0E8CF16D10409F0BCCF6F5F65
:102D10007F4FC058DF4F020F131FA1CFE491F0E0A7
:102D20000A2E02C0EE0FFF1F0A94E2F7E095F0951D
:102D3000FE22C2CFE491F0E0082C02C0F595E795A1
:102D40000A94E2F7E095F095FE22D2CF109709F0B1
:102D5000BACFD0CFDF91CF911F910F91FF90EF901D
:102D6000DF90CF90BF90AF909F908F907F906F90AB
:102D70005F904F903F900895CF92DF92EF920F9324
:102D8000CF93DF938830910508F56A01EB01FC01D0
:102D9000E153F94EE12C08E028E00C94BF2ED71641
:102DA0001117F916ED160517291735171D1746E6E1
:102DB00052E0B601CE010E94D015EE24E39428E043
:102DC0004EE552E0B601CE010E94D015DF91CF91C1
:102DD0000F91EF90DF90CF90089546E552E0B60155
:102DE000CE010E94D015EE24E39428E04EE452E098
:102DF000E9CF46E452E0B601CE010E94D015EE24A0
:102E0000E39428E04EE352E0DDCF46E352E0B60122
:102E1000CE010E94D015EE24E39428E04EE252E069
:102E2000D1CF46E252E0B601CE010E94D015EE2489
:102E3000E39428E04EE152E0C5CF46E152E0B6010E
:102E4000CE010E94D015EE24E39428E04EE052E03B
:102E5000B9CF46E052E0B601CE010E94D015EE2473
:102E6000E39428E04EEF51E0ADCF46EF51E0B601DC
:102E7000CE010E94D015EE24E39428E04EEE51E0FE
:102E8000A1CFEF920F93CF93DF93EC016A817B8107
:102E9000613F8FEF78071CF18C819D81681B790B56
:102EA0007B836A832E813F812F5F3F4F2630310520
:102EB000DCF43F832E83E12C00E120E14EEC51E075
:102EC000888199810E94D0156A817B81EE24E394E8
:102ED00020E14EEA51E0888199810E94D015DF916E
:102EE000CF910F91EF9008951F821E8201969D83CE
:102EF0008C83E1CFCF92EF920F93CF93DF93EC01CE
:102F00008E816A3069F49D819C836985860F8E83EA
:102F100081E090E0DF91CF910F91EF90CF900895F5
:102F20006A3378F4603308F051C0613209F450C05C
:102F30009FE36E3291F098859C5F8C81890F8C8322
:102F4000E7CF6134C0F36B3530F09FE9960F9A31CB
:102F500090F799EB01C09FEB960F61E0680F062E8A
:102F6000000C770BAC810A2E000CBB0BECEAF0E0F6
:102F70002DEA30E08F81813069F50491F901E49008
:102F80004EEA50E09923D1F041E050E08E2D877059
:102F900011F450E040E02E2D269526952695240F1D
:102FA000352F311D029FF001039FF00D11249E9FCC
:102FB000A0019F9F500D112442555F4F9AEFC92EDB
:102FC00030E020E0CD010E940A12B5CF94E0C4CFDA
:102FD0009EE3C3CF0491F901E4904EEA50E09923B7
:102FE000D1F041E050E08E2D877011F450E040E0C8
:102FF0002E2D269526952695240F352F311D029FBF
:10300000F001039FF00D11249E9FA0019F9F500D82
:10301000112442555F4F8BEFC82ED2CF0F931F93D1
:10302000CF93DF938C01D0E0C0E0F801EC0FFD1FDF
:103030006491662341F083E498E00E947A17892B1B
:1030400011F02196F2CFCE01DF91CF911F910F9118
:103050000895089590E080E00895FB01019000201C
:10306000E9F73197AF01461B570BDC01ED91FC915D
:103070000280F381E02D09944F925F926F927F92CC
:10308000AF92BF92CF92DF92EF92FF920F931F9376
:10309000CF93DF93CDB7DEB7A1970FB6F894DEBF1D
:1030A0000FBECDBF5C016A017B01F7FE47C0DC01AA
:1030B000ED91FC910190F081E02D6DE209958C017C
:1030C00022273327A9012C193D094E095F0919A2AE
:1030D000FE01B1967F019AE0492E512C612C712C92
:1030E000CA01B901A30192010E946A2E605DD70155
:1030F0006E937D01211531054105510589F790E059
:1031000080E0109721F0BD01C5010E942D18800FAD
:10311000911FA1960FB6F894DEBF0FBECDBFDF9111
:10312000CF911F910F91FF90EF90DF90CF90BF90C4
:10313000AF907F906F905F904F900895AB01960194
:1031400019A28E010F5D1F4F8AE0C82ED12CE12CF1
:10315000F12CCA01B901A70196010E946A2E605D97
:10316000F80162938F01211531054105510589F759
:1031700090E080E0309769F2BF01C5010E942D18F0
:10318000C8CF6115710511F00C942D1890E080E006
:103190000895FF920F931F93CF93DF93EC01F62EC8
:1031A00008811981C8010E94222EF81621F06F2D86
:1031B000C8010E942A2ECE01DF91CF911F910F915D
:1031C000FF9008950C94222ECF92DF92EF92FF92FF
:1031D0006B017C01C114D104E104F10441F00E94AF
:1031E000CA2DA70196010E94382E6B017C01C701F0
:1031F000B601FF90EF90DF90CF900895CF92DF92CD
:10320000EF92FF920F931F9360911C0370911D0327
:1032100080911E0390911F031616170618061906B3
:103220000CF041C00E94E418C0901C03D0901D0314
:10323000E0901E03F0901F038B01770F220B330BDE
:1032400080914203909143030196092E000CAA0B32
:10325000BB0BB701A601481B590B6A0B7B0BDB01AB
:10326000CA01081719072A073B070CF58091350397
:1032700090913603A0913703B09138038C199D09C2
:10328000AE09BF098093350390933603A0933703AB
:10329000B0933803C701B6011F910F91FF90EF90D3
:1032A000DF90CF90089560E070E0CB01BDCFC12CDE
:1032B000D12C7601EFCF0F931F93CF93DF93109212
:1032C000530310925203109244031092450310923C
:1032D00046031092470310924D0310924C0381E075
:1032E00090E0A0E0B0E08093260190932701A093A6
:1032F0002801B0932901109211031092100310922B
:103300003C0310923B031092430310924203EAE203
:10331000F1E0CAE0D1E024E630E040E050E0119274
:103320001192119211922993399349935993AAE0DA
:10333000B0E00E94572E9B01AC0101E0E634F0079B
:1033400071F7809164008E7F8093640080917A0091
:10335000806480937A0080917A0086FDFCCFC091D2
:103360007800D09179000E942D11AB01BC01CE01F3
:10337000B0E0A0E0DC01992788278C019D01040FB3
:10338000151F261F371FC901B80120916400216055
:1033900020936400611571058105910531F0DF917D
:1033A000CF911F910F910C94192EDF91CF911F9106
:1033B0000F9108951F920F920FB60F9211248F93C1
:1033C0009F938091E1009091E100937F9093E100C1
:1033D00083FF0FC01092E90091E09093EB001092F0
:1033E000EC0092E39093ED001092690398E09093C3
:1033F000F00082FF22C093E09093E9009091F200E8
:10340000992319F09AE39093E80090915A03992335
:1034100041F090915A03915090935A03911101C039
:103420005D9A90916803992341F0909168039150BF
:1034300090936803911101C0289A84FF18C080916D
:10344000E2008E7E81608093E2008091E1008F7EB9
:103450008093E10080915B038E7E806180935B03AB
:103460009F918F910F900FBE0F901F90189580FF26
:10347000F7CF8091E2008E7E80618093E2008091A0
:10348000E1008E7E8093E10080915B038E7E8160FF
:10349000E5CF1F920F920FB60F921124CF92DF92B9
:1034A000EF92FF920F931F932F933F934F935F934E
:1034B0006F937F938F939F93AF93BF93EF93FF93FC
:1034C000CF93DF93CDB7DEB76C97DEBFCDBF109241
:1034D000E9008091E80083FF25C068E0CE014596B1
:1034E0000E94F31082EF8093E8008D8987FF39C036
:1034F0009091E80090FFFCCF982F907609F034C1AE
:103500009E894F89588D2F89F88C911131C0803850
:1035100061F5809159038093F1001092F1008EEFD4
:103520008093E8006C960FB6F894DEBF0FBECDBF57
:10353000DF91CF91FF91EF91BF91AF919F918F91CB
:103540007F916F915F914F913F912F911F910F91BB
:10355000FF90EF90DF90CF900F900FBE0F901F90D5
:1035600018959EEF9093E800C7CF1092F100D5CF49
:10357000913059F48111D3CF4130510581F68091BA
:1035800059038D7F80935903CACF933049F4811139
:10359000C6CF4130510519F6809159038260F2CFB0
:1035A000953041F48091E80080FFFCCF20682093A3
:1035B000E300B5CF963009F0A9C00B8D1C8D22E039
:1035C0001092E9001092570310925603F2122EC087
:1035D00010925503109254030E94C2101F8299E06A
:1035E0009983FA8291E09E8390EA98879AEF99876F
:1035F0002091560330915703275F3F4F3C832B8325
:103600008D831092E9001092570310925603109385
:1036100055030093540349E050E0BE016F5F7F4FB4
:1036200080E00E949C100E94C21079CF1093550335
:10363000009354030E94D90FDC0112960D911C9146
:103640000115110509F451C1D801ED91FC910480D7
:10365000F581E02DBE016B5E7F4FC8010995009793
:1036600009F03EC1F80100851185EACFF3E0FF12B1
:103670000EC08F89882309F440C0823061F440E88D
:1036800060E186EB9EE10E94C51C811148CF81E27A
:103690008093EB0047CF813029F440E86BE08AEA61
:1036A0009EE1F1CF833099F70E94D90FDC01129689
:1036B000ED90FC908E010F5F1F4F6801E114F10443
:1036C00079F0D701ED91FC910680F781E02DB801EA
:1036D000C7010995080F111DF701E084F184EECFB1
:1036E000D8011C92F60101900020E9F73197BF0143
:1036F0006C197D0940E0C601C6CF64E97EE1FB019B
:10370000449150E080E80E949C1009CF973009F462
:10371000BECF983021F481E08093F10000CF993042
:1037200009F0FDCE837009F0B2CFE7E6F1E081E069
:1037300031E096E32191222371F08093E9003093E8
:10374000EB00DF0111972C912093EC009093ED009A
:103750008F5F873079F78EE78093EA001092EA0056
:103760008F8980936903DBCE8B8D9C8D1092E9004D
:10377000109257031092560390935503809354036D
:10378000898D811192C08E899D89913A49F4813247
:1037900009F07DCF47E050E06AE471E080E0B3CF0C
:1037A000913209F074CF833269F48F89988DB0E03B
:1037B000A0E08093460190934701A0934801B09305
:1037C0004901ADCE803269F48091E80082FFFCCFE0
:1037D00067E08AE491E00E94F3108BEF8093E800A9
:1037E0009ECE823209F09BCE8F8980935101EEEFFD
:1037F000FFE7859194918B3F9C4D51F1E0E0F8E01B
:1038000080914A0190914B01A0914C01B0914D01E2
:10381000803B9440A105B105F1F48091510180FDF8
:103820001AC0EE3F8AE0F80789F587E797E79183AA
:103830008083809160008093580388E19BE00FB6FD
:10384000F894A895809360000FBE9093600067CEB7
:10385000EEEFFAE0D5CF808191818737974709F065
:103860005ECEA89580916000886180936000809111
:10387000580380936000EE3F2AE0F20789F08091C0
:10388000FE0A9091FF0A9183808349CE80819181C5
:103890008737980751F29093FF0A8093FE0AC5CFAD
:1038A0001092FF0A1092FE0A3ACE0E94D90FDC0154
:1038B00012960D911C910115110509F4E8CED8015D
:1038C000ED91FC910190F081E02DBE016B5E7F4F88
:1038D000C8010995811123CEF80100851185EBCF30
:1038E000181619060CF41BCED2CEF1E0FF12BECE94
:1038F00068E97EE104CF1F920F920FB60F92112458
:103900002F933F938F939F93AF93BF938091070320
:1039100090910803A0910903B0910A03309102032A
:1039200023E0230F2D3758F50196A11DB11D2093DB
:1039300002038093070390930803A0930903B093B5
:103940000A038091030390910403A0910503B091B1
:1039500006030196A11DB11D8093030390930403F8
:10396000A0930503B0930603BF91AF919F918F91F0
:103970003F912F910F900FBE0F901F90189526E842
:10398000230F0296A11DB11DD2CFEF92FF920F938C
:103990001F93CF93DF93F82E192FE62E042F81E08B
:1039A000860F880F0E946E1083E00E946E10CF2D4C
:1039B000D12FEC0EFD2EF11CCE15DF05B9F007FF5F
:1039C00013C0FE0184910E946E10182F80E00E94A7
:1039D0006E10812321968111EFCFDF91CF911F913E
:1039E0000F91FF90EF9008958881EDCF81E0F5CFA2
:1039F00010926D0710926C0788EE93E0A0E0B0E0A3
:103A000080936E0790936F07A0937007B093710730
:103A100081E791E090936B0780936A078FEF9FEFA8
:103A200090937707809376071092500810924F0872
:103A30008FE891E090934E0880934D0810924608CD
:103A40001092450883E891E09093440880934308DE
:103A500088E080934C0881E080934B0810924808DE
:103A6000109249081092470880934A08E3E0F8E072
:103A70002CEE3FEF81E090E01182108233832283AD
:103A80009583848317821682389648E0E334F407DE
:103A900099F7E3ECF7E083E098E04CEE5FEF21E08C
:103AA00030E011821082538342833583248317824E
:103AB000168238968E179F07A1F71092C2071092B0
:103AC000BB071092BA071092BD071092BC07109264
:103AD000BF071092BE070895CF93DF93CDB7DEB72F
:103AE000CA54D1090FB6F894DEBF0FBECDBF78948B
:103AF00084B5826084BD84B5816084BD85B58260F3
:103B000085BD85B5816085BD80916E0081608093A3
:103B10006E0010928100809181008260809381000C
:103B2000809181008160809381008091800081601C
:103B300080938000809191008260809391008091B9
:103B400091008160809391008091900081608093CA
:103B500090008091C10084608093C1008091C10079
:103B600082608093C1008091C10081608093C10018
:103B70008091C30081608093C3008091C000826007
:103B80008093C0008091C20081608093C2008091C8
:103B90007A00846080937A0080917A0082608093BA
:103BA0007A0080917A00816080937A0080917A0017
:103BB000806880937A0010926903109259031092E2
:103BC0005B038091D70081608093D70080EA809367
:103BD000D80089B5806189BD89B5826089BD09B485
:103BE00000FEFDCF61E070E080E090E00E945211A5
:103BF0008091D8008F7C80618093D8008091E00014
:103C0000807F8093E0008091E1008E7E8093E100D0
:103C10008DE08093E200559A209A81EC80937C009D
:103C200085B1806F85B984B1877E84B984B1876E90
:103C300084B95E9A5F988AB1806D8AB9769A6E98D7
:103C400081B3806F81BB899880B38D7080BB80E524
:103C50008CBD81E08DBD85E090E00E94F0135F9AFD
:103C600085E090E00E94F0135E985C98EEE1F8E049
:103C70008BE298E024912EBD00000DB407FEFDCF2D
:103C800031968E179F07B1F75C9A81E880936400A4
:103C9000809165008160809365000E94C5140E9438
:103CA000F51302E010E087FF15C05C9885EA8EBD31
:103CB00000000DB407FEFDCF5C9A2E982F982D982A
:103CC0008091640080628093640081E083BF889566
:103CD00013BEFCCF0E94F51382FF40C02D980E94B6
:103CE000F51384788438C1F40E94EE1388EC90E0D8
:103CF0000E94F0132F981A8309836FEFCE0101966B
:103D00000E94C91884EF91E00E94F0132F9A0E943C
:103D1000F51384788438D9F30E94F51384718431C3
:103D2000C1F40E94EE1388EC90E00E94F0132E98EC
:103D30001A83098360E0CE0101960E94C91884EFBE
:103D400091E00E94F0132E9A0E94F5138471843141
:103D5000D9F388EC90E00E94F013BCCF0E94EE13E0
:103D600082E090E00E94E218882309F43EC03E9A67
:103D70003F9A81E090E00E94E218182F147081FFB2
:103D80000EC011112E9891EFC92EDD24DA940E94F5
:103D9000F51386FF2DC02E9A2F9A0E94EE1382E310
:103DA00090E00E94F0130E94F5138111F8CF81E298
:103DB000809300010E945B198FB7F894009107036C
:103DC000109108032091090330910A038FBFD0900E
:103DD0000D03DD2009F46BC010920D0380E090E02C
:103DE000892B51F30E940000E7CF3E983F98C1CF46
:103DF000112331F024E0C216D10411F42E9A2F9829
:103E000081E00E948F0FEE24E39400E128E54EE666
:103E100057E0B60184E190E00E94D0150E94C514DD
:103E20008FE090E00E94F0133FEFC31AD30A69E1DC
:103E3000C616D10409F0ABCF112311F02F9A2D989B
:103E400080E991E00E94F0130E94EE1381E090E07F
:103E50000E94E21880FFA3CF8AE090E00E94E2185F
:103E60009FEF980F9E3F08F09ACF22E330E0309307
:103E70004F0320934E0328E330E030935103209307
:103E800050030BE010E0682F8DE498E00E94FD13D2
:103E9000C8010E94E2180F5F1F4F0131110599F709
:103EA0000E94C51488EE93E00E94F01378CF8091B1
:103EB0000E03902F981B892F90910001891748F4C9
:103EC0008F5F891708F08ACF81E083BF889513BE82
:103ED00085CF41E040930D0300930E0380910B03C7
:103EE00090910C03019690930C0380930B038D2DFE
:103EF000EAE6F3E081118FEF0024819381938193AF
:103F000081930394D1F710925103109250031092B1
:103F10004F0310924E03A0905203B0905303A2E0BF
:103F2000AA16B10409F45AC30CF00EC1A114B104CD
:103F300009F43BC2E1E0AE16B10409F45AC780911E
:103F40005203909153038230910510F40C94732D19
:103F5000059711F40C94732D809110039091110327
:103F600001969093110380931003079714F40C9417
:103F7000732DEAE2F1E090E080E021E030E0C190D2
:103F8000D190E190F190229FB001239F700D700DB0
:103F900011246C9DA0016D9D500D7C9D500D112430
:103FA000840F951F2F5F3F4F2830310541F7209137
:103FB00041032223A1F09C01220F331F820F931F84
:103FC00020913F0330914003215031093093400349
:103FD00020933F031216130614F0109241034091F0
:103FE00044035091450360914603709147038C014F
:103FF000092E000C220B330B400F511F621F731F41
:1040000040934403509345036093460370934703E2
:10401000181619060CF04DC021E0803591050CF4FE
:1040200020E020930F0360E570E00E94AB2E8B012F
:104030000F5F1F4F0930110514F008E010E083EC0A
:10404000E82E87E0F82E93E0C92E98E0D92EF701EC
:1040500082819381813F9F4F0CF50150110962E1EC
:1040600070E080E090E00E94E4184B015C0164E79E
:1040700070E080E090E00E94E418D7016D937C939B
:10408000BEE18B0E911CA11CB11CF70193828282B0
:1040900021E030E035832483178216820150110914
:1040A00038E0E30EF11CCE14DF0419F010161106EF
:1040B00074F210921103109210038091BE07909138
:1040C000BF071816190644F48091C0079091C107E4
:1040D00097FD02C00C94732D8091410381110C94C3
:1040E000732D80910F03882311F40C94732D64E6D3
:1040F00070E080E090E00E94E4186336710581056D
:10410000910514F40C94732D63E070E080E090E06E
:104110000E94E418613071058105910511F40C9439
:10412000422D623071058105910511F40C94772DB3
:10413000672B682B692B11F00C94482D2B961FAE22
:104140001EAE2B970C94482DF4E0AF16B10411F479
:104150000C94952B0CF4D4C435E0A316B10409F0EB
:10416000EECE82E08093050182E090E090934F03D1
:1041700080934E03909351038093500367E971E05D
:104180008DE498E00E94C11812E310934808109340
:10419000470888E18093490889E498E00E940E1856
:1041A000109348081093470882E2809349088EE3F1
:1041B00098E00E940E184091420350914303052E4F
:1041C000000C660B770B83E498E00E943C18109378
:1041D0004808109347088CE28093490885E398E0EB
:1041E0000E940E18109348081093470886E38093A6
:1041F00049088BE298E00E940E1880914C03909140
:104200004D0364E070E00E94AB2E97FF02C00C9457
:10421000002C90934D0380934C03C0904C03D0909E
:104220004D0391E0C916D10411F40C94252C14F01F
:104230000C94042CC114D10411F40C94172C0E947A
:10424000BC1480E80E94B114882339F0F1E0CF1A41
:10425000D108D0924D03C0924C0380E10E94B1146A
:10426000882349F080914C0390914D0301969093DF
:104270004D0380934C0388E00E94B114811106C065
:1042800084E00E94B114882309F459CE80914C0334
:1042900090914D038130910511F40C94412C14F050
:1042A0000C94372C892B09F04ACE809144039091CD
:1042B0004503A0914603B091470389839A83AB835A
:1042C000BC83209142033091430366E271E0DE013A
:1042D000159686E091E046E451E0FB01C190D19053
:1042E000E190F190BF01CD92DD92ED92FD92FC0143
:1042F000C190D190E190F190CF015C96CD92DD928A
:10430000ED92FC925F974617570739F727963FAF14
:104310002EAF27978DE591E029969FAF8EAF299715
:104320006DE4CE01895B9F4F0E94C9188EE591E034
:1043300029969FAF8EAF299763E4CE01895B9F4F8B
:104340000E94C9188FE591E029969FAF8EAF2997FB
:1043500067E4CE01895B9F4F0E94C91880E691E017
:1043600029969FAF8EAF299764E4CE01895B9F4F5A
:104370000E94C9189E012F5F3F4F790101E611E0AD
:10438000D701DD907D01C8010E94222ED81621F0B0
:104390006D2DC8010E942A2E0F5F1F4F073AB1E012
:1043A0001B0771F785E992E0DDC082E0809305018B
:1043B00002E010E010934F0300934E03109351035B
:1043C0000093500367E971E08DE498E00E94C11802
:1043D00086E4F82EF0924808F092470888E180932E
:1043E000490889E49EE10E940E18F0924808F09274
:1043F000470882E2809349088FE39EE10E940E18ED
:1044000080914C0390914D03B8010E94AB2E8F3FD9
:10441000980709F4B2C090934D0380934C03C09069
:104420004C03D0904D03C114D10409F4ABC081E01A
:10443000C816D10409F4B3C00E94BC1480E80E94DD
:10444000B114882339F091E0C91AD108D0924D03F4
:10445000C0924C0380E10E94B114882349F08091FE
:104460004C0390914D03019690934D0380934C0320
:1044700088E00E94B114811106C084E00E94B1144A
:10448000882309F45CCD80914C0390914D030097F3
:1044900009F48EC0019709F052CD8DE591E00E949C
:1044A000E2188D3409F089C08EE591E00E94E2188F
:1044B000833409F082C08FE591E00E94E2188734CE
:1044C00009F07BC080E691E00E94E218843409F094
:1044D00074C001E611E0DE0111967D01C8010E9461
:1044E000E218F70181937F010F5F1F4F073AF1E058
:1044F0001F07A1F789819A81AB81BC818093440316
:1045000090934503A0934603B093470327968EAD3F
:104510009FAD279790934303809342038E010B5FD7
:104520001F4FE6E2F1E086E091E026E431E0D801B9
:104530004D915D916D917D918D0141935193619369
:1045400071935C964D915D916D917C915F97DC01CB
:104550004D935D936D937D93CD012E173F0739F7F2
:1045600080EA91E090934B0380934A0382E090E0CD
:1045700090934903809348032AC010934D030093FE
:104580004C034DCFEE24E39408E028E047E35EE1DE
:1045900068E170E08DE390E00E94D0154DCFEE24ED
:1045A000E39408E028E047E35EE162E270E0F2CFE6
:1045B0000E945B1982E090E00CC08CEA91E090933D
:1045C0004B0380934A03109249031092480384E0FE
:1045D00090E09093530380935203B1CC2091BE0797
:1045E0003091BF07121613060CF04EC0215031094E
:1045F0003093BF072093BE07C90165E070E00E94B9
:10460000AB2E892B29F48091C20748274093C2071B
:1046100020FD0EC08091BA079091BB072091C20780
:10462000222309F4B7C101969093BB078093BA0780
:104630008091C0079091C1078130910509F4C5C1EF
:104640008230910509F4A8C1892BF1F46091BC076F
:104650007091BD07E12C08E028E044EE5DE1809117
:10466000BA079091BB070E94D0156091BC0770916A
:10467000BD07EE24E39428E04CED5DE18091BA079C
:104680009091BB070E94D01513E0212E18E0312E27
:104690008101C8010E944117085F1F4FB8E0033431
:1046A0001B07B9F703EC17E0C8010E944117085F28
:1046B0001F4FE8E003301E07B9F780913E038111D8
:1046C0009DC1EAE2F1E090E080E041915191619179
:1046D0007191840F951F21E0E634F207B1F721E0D4
:1046E000181619060CF020E020933E0382E0809318
:1046F00048088093470880934908809141038823A4
:1047000009F4FBC18DE29EE10E940E184091440322
:1047100050914503609146037091470383E498E00C
:104720000E943C1882E080934808809347088AE002
:10473000809349088FE19EE10E940E184091420348
:1047400050914303052E000C660B770B83E498E031
:104750000E943C188CE0809348088093470817E338
:10476000109349088AE19EE10E940E18E12C08E0AE
:1047700028E042E15EE168E370E082E090E00E94C0
:10478000D015EE24E39428E04AE05EE168E370E0AF
:1047900082E090E00E94D01586E6809348088093DE
:1047A00047081093490884E09EE10E940E180E9479
:1047B000BC1488E00E94B114882309F470C0609191
:1047C0002601709127018091280190912901209163
:1047D0004103222331F0A3E0B0E09B01AC010E9431
:1047E000572E0091440310914503209146033091C8
:1047F0004703060F171F281F391F00934403109308
:104800004503209346033093470328E030E040E01F
:1048100050E00E94382E01E010E02115310531F002
:1048200089012930310514F008E010E01016110656
:10483000B4F5D10112968D919C91813F9F4F3CF52B
:1048400062E170E080E090E00E94E4186B017C017E
:1048500064E770E080E090E00E94E418F101718369
:104860006083FEE1CF0ED11CE11CF11CD101139637
:10487000DC92CE921297E1E0F0E01596FC93EE9375
:10488000149717961C921E92169701501109F8E082
:104890002F0E311C23E4221628E0320639F684E07C
:1048A0000E94B114882331F083E090E09093530389
:1048B0008093520380E80E94B114882351F0109233
:1048C0004D0310924C0385E090E090935303809346
:1048D000520380E20E94B1148823D1F08091BE0778
:1048E0009091BF07181619069CF48091C00790910B
:1048F000C107892B69F481E0809341038CE291E048
:104900009093400380933F031092BF071092BE071D
:1049100080E40E94B1148823D1F08091BE07909169
:10492000BF07181619069CF48091C0079091C10723
:10493000029769F481E0809341038CE291E09093C7
:10494000400380933F031092BF071092BE0780E19F
:104950000E94B114882309F4F2CA8091BE07909195
:10496000BF07181619060CF0EACA8091C00790918B
:10497000C107019709F0E3CA81E0809341038CE20B
:1049800091E09093400380933F031092BF071092F1
:10499000BE07D5CA019748CE6091BC077091BD078C
:1049A000E12C08E028E04CEF5DE18091BA0790919E
:1049B000BB070E94D0156091BC077091BD07EE2423
:1049C000E39428E047E35EE159CE6091BC07709123
:1049D000BD07E12C08E028E044EF5DE18091BA07D3
:1049E0009091BB070E94D0156091BC077091BD07E4
:1049F000EE24E39428E04CEE5DE140CE80913D034F
:104A0000811109C08FE790E090933C0380933B03B2
:104A100081E080933D03AAE24A2EA1E05A2E10E0E5
:104A200000E0AA24A394B12CF20181919191A1916B
:104A3000B1912F013C01E0903B03F0903C03892BA6
:104A400009F447C0C801F3E0880F991FFA95E1F710
:104A50008E0D9F1D80389105E4F5912C812CD12C71
:104A6000C12C861497041CF567EF96016203A00120
:104A7000639F500D1124425D5F4FB801E3E0660F64
:104A8000771FEA95E1F76E0D7F1DC5010E94BC16E8
:104A90008FEFC81AD80A93E0C916D10424F00F5F2B
:104AA0001F4FD12CC12CAFEF8A1A9A0ADACFCD282A
:104AB00011F00F5F1F4FC80163E0880F991F6A95BF
:104AC000E1F78E0D9F1DDD24D394893F9F4F0CF499
:104AD000D12CEFEFAE1ABE0AF8E0AF16B10409F020
:104AE000A3CFD11002C010923D0321E0E21AF108D9
:104AF000F0923C03E0923B03F9CD86E29EE104CEC6
:104B000080914C0390914D0368E070E00E94AB2EC1
:104B100097FD20C190934D0380934C0300914C036B
:104B200010914D0381E090E00530110514F082E012
:104B300090E090933A038093390382E08093480891
:104B4000809347088093490884ED9DE10E940E18E8
:104B5000F801EE0FFF1FEE0FFF1FEA5FFE4F4081CF
:104B600051816281738183E498E00E943C188091B6
:104B7000390390913A03019709F0EFC096E5A92E09
:104B800091E0B92E26E2C22E21E0D22E3AE0E32EA9
:104B9000F12C10E000E044E1942E909248089092AD
:104BA0004708E0924908D5016D917D915D0183E44C
:104BB00098E00E94C11881ED9DE10E940E18F60157
:104BC00041915191619171916F0183E498E00E944C
:104BD0003C18A7016BE070E0C8010E94BC160F5F93
:104BE0001F4FFAE0EF0EF11C05301105B1F684E617
:104BF000809348088093470888E38093490889ECAC
:104C00009DE10E940E18C0904C03D0904D0325E00A
:104C1000C216D1040CF0DBC08AE08C9DB0018D9DE2
:104C2000700D1124665F7F4FEE24E39408E028E0C6
:104C300047E35EE182E090E00E94D0150E94BC1440
:104C400080E80E94B114882339F031E0C31AD108FA
:104C5000D0924D03C0924C0380E10E94B11488238E
:104C600049F080914C0390914D03019690934D0330
:104C700080934C0388E00E94B114882309F464C037
:104C800000914C0310914D03F801EE0FFF1FEE0F42
:104C9000FF1FCF018A5F9E4F7C01DC018D909D90AC
:104CA000AD90BC908091440390914503A091460340
:104CB000B091470388159905AA05BB050CF490C06F
:104CC00088199909AA09BB09809344039093450365
:104CD000A0934603B0934703EA5DFE4F8081918124
:104CE000A281B3810196A11DB11D80839183A2830E
:104CF000B383C501B40122E030E040E050E00E94FF
:104D0000382E820E931EA41EB51EF701808291825A
:104D1000A282B3828DEC91E000FD06C08BEB91E0A6
:104D2000012B11F480EE91E090934B0380934A03A2
:104D300082E090E0909349038093480384E090E000
:104D4000909353038093520384E00E94B114811125
:104D500031CCF5C887E090E0DDCEB0E6AB2EB1E017
:104D6000BB2E1AE3C12E11E0D12E0AE0E02EF12C69
:104D700005E010E084E1982E909248089092470850
:104D8000E0924908D5016D917D915D0183E498E041
:104D90000E94C11886EC9DE10E940E18F601419117
:104DA0005191619171916F0183E498E00E943C18E8
:104DB000A7016BE070E0C8010E94BC160F5F1F4F97
:104DC000FAE0EF0EF11C08301105B1F61CCFC60158
:104DD00005972AE0289FB001299F700D112422CF4A
:104DE00088EE91E090934B0380934A0383E090E038
:104DF000A1CF4090350350903603609037037090F8
:104E00003803141415041604170404F18AEF91E012
:104E100090934B0380934A0382E090E09093490380
:104E20008093480384E090E090935303809352036F
:104E300080914203909143030196909343038093A2
:104E40004203109234031092330379C8C0902F03A9
:104E5000D0903003E0903103F090320383E092E091
:104E60001C141D041E041F040CF07CCB8091420313
:104E7000909143036AE070E00E94AB2E8A30910566
:104E8000C8F4FC01E95BF84D60E00C94BF2E51279B
:104E90008C2794279C27A427AC27B427BC27C4279A
:104EA000CC2781EC9CE10E940D1561E080EE9BE136
:104EB0000E940D1582E080934808809347088093F4
:104EC000490882EC9DE10E940E18A8E2B0E0A7011B
:104ED00096010E94572E20912B0330912C03409174
:104EE0002D0350912E030E94382E4901D12CC12C44
:104EF000C814D9040CF058C0EE24E39406E021E075
:104F000043E558E063E070E0C6010F960E94D015BB
:104F1000FFEFCF1ADF0AECCF8CEE9AE10E940D155D
:104F200061E088EF99E1C4CF88EA98E10E940D150D
:104F300061E088E597E1BCCF87E496E10E940D151A
:104F400061E086E395E1B4CF85E094E10E940D1520
:104F500061E084ED92E1ACCF83EE91E10E940D150A
:104F600061E082EF90E1A4CF8BEC9FE00E940D15F1
:104F700061E084EA9EE09CCF88E69DE00E940D15EA
:104F800061E08CE29CE094CF8AE49BE00E940D15E6
:104F900061E088E69AE08CCF8EE599E00E940D15DD
:104FA00061E084E598E084CF82E0809348088093B4
:104FB00047088AE0809349088EEB9DE10E940E1815
:104FC000A8E2B0E0A30192010E94572E209127038E
:104FD000309128034091290350912A030E94382ED2
:104FE0004901D12CC12CC814D90484F4EE24E394D3
:104FF00006E021E043E558E06BE070E0C6010F9663
:105000000E94D0152FEFC21AD20AEDCF8091330340
:1050100090913403181619060CF447C21CE0109343
:1050200048081093470888E18093490887EB9DE181
:105030000E940E18109348081093470882E280934C
:10504000490880EB9DE10E940E18109348081093C8
:1050500047088CE2809349088BEA9DE10E940E1874
:10506000109348081093470886E38093490882EA22
:105070009DE10E940E1840912303509124036091FA
:1050800025037091260383E498E00E943C180E9457
:10509000BC1480E80E94B114882349F080914C032D
:1050A00090914D03019790934D0380934C0380E1C1
:1050B0000E94B114882349F080914C0390914D03D4
:1050C000019690934D0380934C0380914C039091F3
:1050D0004D0364E070E00E94AB2E97FD8AC0909370
:1050E0004D0380934C03C0904C03D0904D0331E0AE
:1050F000C316D10409F49FC00CF07EC0C114D104C2
:1051000009F48CC088E00E94B114811107C084E0CA
:105110000E94B114882311F40C949F1F80913601D2
:10512000909137012091210330912203820F931F28
:1051300090932203809321032091420330914303F3
:105140002B5F3F4F28173907ECF41092220310927F
:1051500021038091230390912403A0912503B09112
:1051600026030196A11DB11D83309105A105B1054E
:105170000CF073C08093230390932403A093250322
:10518000B093260321E0C216D10409F4A3C00CF4A5
:1051900071C062E0C616D10409F4A2C083E0C8164B
:1051A000D10409F083C08091230390912403A0913E
:1051B0002503B0912603181619061A061B0664F477
:1051C0006AE070E080E090E00E94E41866307105CB
:1051D000810591050CF4F1C00E94FE1829E332E02C
:1051E00016161706180619060CF452C181E492E04F
:1051F0004FC083E090E073CF82E0C816D10421F164
:1052000093E0C916D10409F07DCFEE24E39408E0C1
:1052100028E047E35EE166E370E008C0EE24E39433
:1052200008E028E047E35EE168E170E082E090E0BA
:105230000E94D01567CFEE24E39408E028E047E30E
:105240005EE162E270E0F2CFEE24E39408E028E051
:1052500047E35EE16CE270E0E9CF10922303109225
:1052600024031092250310922603A1E0CA16D1044C
:1052700089F19CF4CD28D1F40E94FE182DE032E093
:1052800016161706180619060CF402C183E192E0FF
:1052900090934B0380934A0309C0E2E0CE16D104F9
:1052A000F9F0F3E0CF16D10409F496CFA1E0B0E015
:1052B000B0934903A093480384E090E09093530394
:1052C000809352038EE190E09093340380933303F4
:1052D0000C949F1F81E08093200382E292E0D8CF5C
:1052E000C0902F03D0903003E0903103F090320350
:1052F00040902B0350902C0360902D0370902E0350
:10530000C414D504E604F7040CF054C0D301C20160
:105310000996A11DB11D4397A105B105A8F59FEF01
:10532000C91AD90AE90AF90AC0922F03D0923003A8
:10533000E0923103F092320380912F039091300379
:10534000A0913103B0913203481659066A067B06D4
:1053500044F440922F0350923003609231037092D4
:10536000320389E292E090934B0380934A03C50194
:10537000BB0CAA0BBB0B8093010190930201A0937D
:105380000301B093040192CFC301B20123E030E0E6
:1053900040E050E00E94382EC20ED31EE41EF51EDF
:1053A000C0922F03D0923003E0923103F092320387
:1053B0005901C2CFB12CA12CBFCF80901C0390907B
:1053C0001D03A0901E03B0901F03C501B4012AE085
:1053D00030E040E050E00E94382E69017A01CC0CA8
:1053E000DD1CEE1CFF1CC80CD91CEA1CFB1C8091A8
:1053F000350390913603A0913703B09138038C198F
:105400009D09AE09BF098093350390933603A0939D
:105410003703B09338038091230390912403A09124
:105420002503B09126030197A109B10980932303B5
:1054300090932403A0932503B093260364E070E0C7
:1054400080E090E00E94E418AB01BC0140955095CB
:10545000609570952091360130913701249FC001ED
:10546000259F900D349F900D1124909322038093DB
:1054700021038FE292E090934B0380934A03C09202
:105480000101D0920201E0920301F09204010ECFDB
:1054900030934B0320934A03609301017093020100
:1054A000809303019093040101CF019709F058C044
:1054B00066E070E080E090E00E94E4189B016115D6
:1054C000710509F05CC0C0902703D0902803E090DC
:1054D0002903F0902A03C701B60123E030E040E041
:1054E00050E00E94382EA901330F660B770B809194
:1054F000350390913603A0913703B0913803840FA0
:10550000951FA61FB71FC816D906EA06FB0674F139
:105510008093350390933603A0933703B0933803F9
:105520008FE492E090934B0380934A0340930101F0
:10553000509302016093030170930401E1E0F0E0F5
:10554000F0934903E093480384E090E09093530381
:10555000809352031092340310923303109220036D
:1055600080913303909134030197AECEC0923503FE
:10557000D0923603E0923703F0923803D1CF6150D6
:1055800071096430710508F071C060911803709161
:10559000190380911A0390911B031616170618061B
:1055A00019060CF058C00E94E418C0901803D0905F
:1055B0001903E0901A03F0901B034B01770FAA0820
:1055C000BB0860912B0370912C0380912D03909167
:1055D0002E0326EF3FEF4FEF5FEF0E94382E2C0D8A
:1055E0003D1D4E1D5F1D82169306A406B506BCF533
:1055F0001C141D041E041F0494F5809120038823AD
:1056000039F072E0F594E794D794C7947A95D1F77E
:1056100080912F0390913003A0913103B091320318
:105620008C199D09AE09BF0980932F039093300315
:10563000A0933103B09332038CE592E090934B0337
:1056400080934A03C0920101D0920201E0920301CB
:10565000F092040173CF60E070E0CB01A6CF88E642
:1056600092E090934B0380934A0368CF2530310535
:1056700009F064CF8091140390911503A091160353
:10568000B0911703181619061A061B060CF04AC02B
:1056900060912703709128038091290390912A0338
:1056A00022E030E040E050E00E94382E8091350347
:1056B00090913603A0913703B09138038217930776
:1056C000A407B5077CF5C0901803D0901903E090AB
:1056D0001A03F0901B03C701B6012AE030E040E056
:1056E00050E00E94382E220F331F441F551FC20E58
:1056F000D31EE41EF51E80912F0390913003A091DC
:105700003103B09132038C199D09AE09BF09809312
:105710002F0390933003A0933103B093320386E7B5
:1057200092E08CCF87E892E09CCF4093050182E025
:1057300090E090934F0380934E0390935103809396
:10574000500360914A0370914B038DE498E00E94EE
:10575000C1184091010150910201609103017091C3
:10576000040177FD04C08DE498E00E943C1880910C
:1057700012039091130301969093130380931203E5
:10578000CC97BCF0809148039091490390935303C8
:105790008093520310921303109212038FEF9FEF26
:1057A000DC018093010190930201A0930301B09367
:1057B00004010E94BC1488E00E94B114811107C04A
:1057C00084E00E94B114882311F40C949F1F8091EF
:1057D000480390914903909353038093520310928E
:1057E0001303109212038FEF9FEFDC0180930101EE
:1057F00090930201A0930301B09304010C949F1FA6
:1058000083E090E00C940921B2E0CB16D10431F191
:10581000E3E0CE16D10411F00C941F21EE24E394A2
:1058200008E028E047E35EE166E370E008C0EE24AC
:10583000E39408E028E047E35EE168E170E089E294
:1058400090E00E94D0150C941F21EE24E39408E010
:1058500028E047E35EE162E270E0F1CFEE24E394FA
:1058600008E028E047E35EE16CE270E0E8CF8230D8
:10587000910509F403C1039711F40C94DA220C94F6
:105880009F1F80912A0190912B01A0912C01B09132
:105890002D01892B8A2B8B2B61F080912E01909109
:1058A0002F01A0913001B0913101892B8A2B8B2BD4
:1058B000C1F480EA92E090934B0380934A0382E024
:1058C00090E0909349038093480384E090E09093A4
:1058D00053038093520310924D0310924C030C9487
:1058E0009F1FE6E2F1E08F01C12CD12C7601C39419
:1058F0009AE0892E912CA12CB12CD80114966D918F
:105900007D918D919C911797A70196010E949B2EE6
:105910009B01AC01C701B6010E949B2E860E971E0B
:10592000A81EB91E085F1F4FB2E0CB0ED11CE11CB0
:10593000F11C29E0C216D104E104F104F1F68092D1
:105940002B0390922C03A0922D03B0922E038092F1
:105950002F0390923003A0923103B0923203B2E051
:10596000CB2ED12CE12CF12C812C912C5401608573
:10597000718582859385A70196010E949B2E660FF3
:10598000771F881F991F860E971EA81EB91E38966E
:1059900032E0C30ED11CE11CF11C68E0C616D10434
:1059A000E104F10421F780921C0390921D03A09260
:1059B0001E03B0921F03109223031092240310922F
:1059C0002503109226031092220310922103809146
:1059D000420390914303889FA001899F500D500D71
:1059E00011244B5F5F4F440F551F052E000C660BB3
:1059F000770B4093270350932803609329037093F8
:105A00002A03409335035093360360933703709312
:105A10003803AC01440F551F480F591F4F5F5F4FAC
:105A2000052E000C660B770B409318035093190357
:105A300060931A0370931B030597092E000CAA0BA1
:105A4000BB0B83309105A105B1059CF48093140331
:105A500090931503A0931603B09317031092340389
:105A600010923303A1E0B0E0B0935303A09352032C
:105A700032CF82E090E0A0E0B0E0E8CF0E945B1976
:105A80000C949F1F82E090E02B969FAF8EAF2B97D8
:105A900060E470E080E090E00E94E4186B017C011B
:105AA00068E770E080E090E00E94E41828E730E0CA
:105AB0003093BF072093BE077093BB076093BA076C
:105AC000BCE0CB0ED11CE11CF11CD092BD07C092F2
:105AD000BC071092C2072B96EEADFFAD2B97F0934B
